{
  "_format": "hh-sol-artifact-1",
  "contractName": "Decentragram",
  "sourceName": "contracts/Decentragram.sol",
  "abi": [
    {
      "inputs": [],
      "stateMutability": "nonpayable",
      "type": "constructor"
    },
    {
      "anonymous": false,
      "inputs": [
        {
          "indexed": false,
          "internalType": "uint256",
          "name": "id",
          "type": "uint256"
        },
        {
          "indexed": false,
          "internalType": "string",
          "name": "hash",
          "type": "string"
        },
        {
          "indexed": false,
          "internalType": "string",
          "name": "landId",
          "type": "string"
        },
        {
          "indexed": false,
          "internalType": "uint256",
          "name": "grantAmount",
          "type": "uint256"
        },
        {
          "indexed": false,
          "internalType": "address",
          "name": "user",
          "type": "address"
        }
      ],
      "name": "ImageUploaded",
      "type": "event"
    },
    {
      "anonymous": false,
      "inputs": [
        {
          "indexed": false,
          "internalType": "uint256",
          "name": "id",
          "type": "uint256"
        },
        {
          "indexed": false,
          "internalType": "string",
          "name": "hash",
          "type": "string"
        },
        {
          "indexed": false,
          "internalType": "string",
          "name": "title",
          "type": "string"
        },
        {
          "indexed": false,
          "internalType": "string",
          "name": "landType",
          "type": "string"
        },
        {
          "indexed": false,
          "internalType": "string",
          "name": "country",
          "type": "string"
        },
        {
          "indexed": false,
          "internalType": "string",
          "name": "soilType",
          "type": "string"
        },
        {
          "indexed": false,
          "internalType": "string",
          "name": "landDetails",
          "type": "string"
        },
        {
          "indexed": false,
          "internalType": "string",
          "name": "price",
          "type": "string"
        },
        {
          "indexed": false,
          "internalType": "string",
          "name": "message",
          "type": "string"
        },
        {
          "indexed": false,
          "internalType": "uint256",
          "name": "grantAmount",
          "type": "uint256"
        },
        {
          "indexed": false,
          "internalType": "address",
          "name": "user",
          "type": "address"
        }
      ],
      "name": "LandBooked",
      "type": "event"
    },
    {
      "anonymous": false,
      "inputs": [
        {
          "indexed": false,
          "internalType": "uint256",
          "name": "id",
          "type": "uint256"
        },
        {
          "indexed": false,
          "internalType": "string",
          "name": "hash",
          "type": "string"
        },
        {
          "indexed": false,
          "internalType": "string",
          "name": "title",
          "type": "string"
        },
        {
          "indexed": false,
          "internalType": "string",
          "name": "landType",
          "type": "string"
        },
        {
          "indexed": false,
          "internalType": "string",
          "name": "country",
          "type": "string"
        },
        {
          "indexed": false,
          "internalType": "string",
          "name": "soilType",
          "type": "string"
        },
        {
          "indexed": false,
          "internalType": "string",
          "name": "landDetails",
          "type": "string"
        },
        {
          "indexed": false,
          "internalType": "string",
          "name": "price",
          "type": "string"
        },
        {
          "indexed": false,
          "internalType": "string",
          "name": "message",
          "type": "string"
        },
        {
          "indexed": false,
          "internalType": "uint256",
          "name": "grantAmount",
          "type": "uint256"
        },
        {
          "indexed": false,
          "internalType": "address",
          "name": "user",
          "type": "address"
        }
      ],
      "name": "LandUploaded",
      "type": "event"
    },
    {
      "inputs": [
        {
          "internalType": "uint256",
          "name": "_id",
          "type": "uint256"
        }
      ],
      "name": "bookLand",
      "outputs": [],
      "stateMutability": "payable",
      "type": "function"
    },
    {
      "inputs": [],
      "name": "desiredAmount",
      "outputs": [
        {
          "internalType": "uint256",
          "name": "",
          "type": "uint256"
        }
      ],
      "stateMutability": "view",
      "type": "function"
    },
    {
      "inputs": [
        {
          "internalType": "uint256",
          "name": "",
          "type": "uint256"
        }
      ],
      "name": "images",
      "outputs": [
        {
          "internalType": "uint256",
          "name": "id",
          "type": "uint256"
        },
        {
          "internalType": "string",
          "name": "hash",
          "type": "string"
        },
        {
          "internalType": "string",
          "name": "landId",
          "type": "string"
        },
        {
          "internalType": "uint256",
          "name": "grantAmount",
          "type": "uint256"
        },
        {
          "internalType": "address",
          "name": "user",
          "type": "address"
        }
      ],
      "stateMutability": "view",
      "type": "function"
    },
    {
      "inputs": [],
      "name": "imagesCount",
      "outputs": [
        {
          "internalType": "uint256",
          "name": "",
          "type": "uint256"
        }
      ],
      "stateMutability": "view",
      "type": "function"
    },
    {
      "inputs": [
        {
          "internalType": "uint256",
          "name": "",
          "type": "uint256"
        }
      ],
      "name": "lands",
      "outputs": [
        {
          "internalType": "uint256",
          "name": "id",
          "type": "uint256"
        },
        {
          "internalType": "string",
          "name": "hash",
          "type": "string"
        },
        {
          "internalType": "string",
          "name": "title",
          "type": "string"
        },
        {
          "internalType": "string",
          "name": "landType",
          "type": "string"
        },
        {
          "internalType": "string",
          "name": "country",
          "type": "string"
        },
        {
          "internalType": "string",
          "name": "soilType",
          "type": "string"
        },
        {
          "internalType": "string",
          "name": "landDetails",
          "type": "string"
        },
        {
          "internalType": "string",
          "name": "price",
          "type": "string"
        },
        {
          "internalType": "string",
          "name": "message",
          "type": "string"
        },
        {
          "internalType": "uint256",
          "name": "grantAmount",
          "type": "uint256"
        },
        {
          "internalType": "address",
          "name": "user",
          "type": "address"
        }
      ],
      "stateMutability": "view",
      "type": "function"
    },
    {
      "inputs": [],
      "name": "landsCount",
      "outputs": [
        {
          "internalType": "uint256",
          "name": "",
          "type": "uint256"
        }
      ],
      "stateMutability": "view",
      "type": "function"
    },
    {
      "inputs": [],
      "name": "name",
      "outputs": [
        {
          "internalType": "string",
          "name": "",
          "type": "string"
        }
      ],
      "stateMutability": "view",
      "type": "function"
    },
    {
      "inputs": [],
      "name": "owner",
      "outputs": [
        {
          "internalType": "address",
          "name": "",
          "type": "address"
        }
      ],
      "stateMutability": "view",
      "type": "function"
    },
    {
      "inputs": [
        {
          "internalType": "uint256",
          "name": "_amount",
          "type": "uint256"
        }
      ],
      "name": "setDesiredAmount",
      "outputs": [],
      "stateMutability": "nonpayable",
      "type": "function"
    },
    {
      "inputs": [
        {
          "internalType": "string",
          "name": "_hash",
          "type": "string"
        },
        {
          "internalType": "string",
          "name": "_landId",
          "type": "string"
        }
      ],
      "name": "uploadImage",
      "outputs": [],
      "stateMutability": "nonpayable",
      "type": "function"
    },
    {
      "inputs": [
        {
          "internalType": "string",
          "name": "_hash",
          "type": "string"
        },
        {
          "internalType": "string",
          "name": "_title",
          "type": "string"
        },
        {
          "internalType": "string",
          "name": "_landType",
          "type": "string"
        },
        {
          "internalType": "string",
          "name": "_country",
          "type": "string"
        },
        {
          "internalType": "string",
          "name": "_soilType",
          "type": "string"
        },
        {
          "internalType": "string",
          "name": "_landDetails",
          "type": "string"
        },
        {
          "internalType": "string",
          "name": "_message",
          "type": "string"
        },
        {
          "internalType": "string",
          "name": "_price",
          "type": "string"
        }
      ],
      "name": "uploadLand",
      "outputs": [],
      "stateMutability": "nonpayable",
      "type": "function"
    }
  ],
  "bytecode": "0x60806040526040518060400160405280600c81526020017f446563656e7472616772616d00000000000000000000000000000000000000008152506000908051906020019062000051929190620000b6565b506000600355606460045560006006553480156200006e57600080fd5b5033600160006101000a81548173ffffffffffffffffffffffffffffffffffffffff021916908373ffffffffffffffffffffffffffffffffffffffff160217905550620001cb565b828054620000c49062000195565b90600052602060002090601f016020900481019282620000e8576000855562000134565b82601f106200010357805160ff191683800117855562000134565b8280016001018555821562000134579182015b828111156200013357825182559160200191906001019062000116565b5b50905062000143919062000147565b5090565b5b808211156200016257600081600090555060010162000148565b5090565b7f4e487b7100000000000000000000000000000000000000000000000000000000600052602260045260246000fd5b60006002820490506001821680620001ae57607f821691505b60208210811415620001c557620001c462000166565b5b50919050565b611dcf80620001db6000396000f3fe60806040526004361061009c5760003560e01c8063848564821161006457806384856482146101765780638da5cb5b146101b7578063a91b8314146101e2578063d6b0af201461020b578063e261f1e514610227578063ec63e8921461026e5761009c565b806306fdde03146100a15780631c9afd0f146100cc57806328b9ded8146100f75780632b6e8bce1461012257806356e224af1461014b575b600080fd5b3480156100ad57600080fd5b506100b6610297565b6040516100c391906112c5565b60405180910390f35b3480156100d857600080fd5b506100e1610325565b6040516100ee9190611300565b60405180910390f35b34801561010357600080fd5b5061010c61032b565b6040516101199190611300565b60405180910390f35b34801561012e57600080fd5b506101496004803603810190610144919061135b565b610331565b005b34801561015757600080fd5b506101606103cb565b60405161016d9190611300565b60405180910390f35b34801561018257600080fd5b5061019d6004803603810190610198919061135b565b6103d1565b6040516101ae9594939291906113c9565b60405180910390f35b3480156101c357600080fd5b506101cc610537565b6040516101d9919061142a565b60405180910390f35b3480156101ee57600080fd5b506102096004803603810190610204919061157a565b61055d565b005b6102256004803603810190610220919061135b565b6106c3565b005b34801561023357600080fd5b5061024e6004803603810190610249919061135b565b6109f4565b6040516102659b9a999897969594939291906115f2565b60405180910390f35b34801561027a57600080fd5b50610295600480360381019061029091906116d5565b610eae565b005b600080546102a49061189a565b80601f01602080910402602001604051908101604052809291908181526020018280546102d09061189a565b801561031d5780601f106102f25761010080835404028352916020019161031d565b820191906000526020600020905b81548152906001019060200180831161030057829003601f168201915b505050505081565b60035481565b60045481565b600160009054906101000a900473ffffffffffffffffffffffffffffffffffffffff1673ffffffffffffffffffffffffffffffffffffffff163373ffffffffffffffffffffffffffffffffffffffff16146103c1576040517f08c379a00000000000000000000000000000000000000000000000000000000081526004016103b89061193e565b60405180910390fd5b8060048190555050565b60065481565b60056020528060005260406000206000915090508060000154908060010180546103fa9061189a565b80601f01602080910402602001604051908101604052809291908181526020018280546104269061189a565b80156104735780601f1061044857610100808354040283529160200191610473565b820191906000526020600020905b81548152906001019060200180831161045657829003601f168201915b5050505050908060020180546104889061189a565b80601f01602080910402602001604051908101604052809291908181526020018280546104b49061189a565b80156105015780601f106104d657610100808354040283529160200191610501565b820191906000526020600020905b8154815290600101906020018083116104e457829003601f168201915b5050505050908060030154908060040160009054906101000a900473ffffffffffffffffffffffffffffffffffffffff16905085565b600160009054906101000a900473ffffffffffffffffffffffffffffffffffffffff1681565b6000825111801561056f575060008151115b61057857600080fd5b6006600081548092919061058b9061198d565b91905055506040518060a001604052806006548152602001838152602001828152602001600081526020013373ffffffffffffffffffffffffffffffffffffffff1681525060056000600654815260200190815260200160002060008201518160000155602082015181600101908051906020019061060b9291906110fc565b5060408201518160020190805190602001906106289291906110fc565b506060820151816003015560808201518160040160006101000a81548173ffffffffffffffffffffffffffffffffffffffff021916908373ffffffffffffffffffffffffffffffffffffffff1602179055509050507f1a409fdd5763d6f632cc0ec92624ec448fae2c874dc340879889ed07b57f9bde60065483836000336040516106b7959493929190611a1b565b60405180910390a15050565b6000811180156106d557506003548111155b6106de57600080fd5b60006002600083815260200190815260200160002090506004543482600901546107089190611a7c565b1015610749576040517f08c379a000000000000000000000000000000000000000000000000000000000815260040161074090611b1e565b60405180910390fd5b80600a0160009054906101000a900473ffffffffffffffffffffffffffffffffffffffff1673ffffffffffffffffffffffffffffffffffffffff166108fc349081150290604051600060405180830381858888f193505050501580156107b3573d6000803e3d6000fd5b50348160090160008282546107c89190611a7c565b9250508190555080600260008481526020019081526020016000206000820154816000015560018201816001019080546108019061189a565b61080c929190611182565b5060028201816002019080546108219061189a565b61082c929190611182565b5060038201816003019080546108419061189a565b61084c929190611182565b5060048201816004019080546108619061189a565b61086c929190611182565b5060058201816005019080546108819061189a565b61088c929190611182565b5060068201816006019080546108a19061189a565b6108ac929190611182565b5060078201816007019080546108c19061189a565b6108cc929190611182565b5060088201816008019080546108e19061189a565b6108ec929190611182565b5060098201548160090155600a820160009054906101000a900473ffffffffffffffffffffffffffffffffffffffff1681600a0160006101000a81548173ffffffffffffffffffffffffffffffffffffffff021916908373ffffffffffffffffffffffffffffffffffffffff1602179055509050507fb4107a90fb4923052fff822489af731d0cb1976add7ec4430a3ce258159e97b0816000015482600101836002018460030185600401866005018760060188600701896008018a600901548b600a0160009054906101000a900473ffffffffffffffffffffffffffffffffffffffff166040516109e89b9a99989796959493929190611bd3565b60405180910390a15050565b6002602052806000526040600020600091509050806000015490806001018054610a1d9061189a565b80601f0160208091040260200160405190810160405280929190818152602001828054610a499061189a565b8015610a965780601f10610a6b57610100808354040283529160200191610a96565b820191906000526020600020905b815481529060010190602001808311610a7957829003601f168201915b505050505090806002018054610aab9061189a565b80601f0160208091040260200160405190810160405280929190818152602001828054610ad79061189a565b8015610b245780601f10610af957610100808354040283529160200191610b24565b820191906000526020600020905b815481529060010190602001808311610b0757829003601f168201915b505050505090806003018054610b399061189a565b80601f0160208091040260200160405190810160405280929190818152602001828054610b659061189a565b8015610bb25780601f10610b8757610100808354040283529160200191610bb2565b820191906000526020600020905b815481529060010190602001808311610b9557829003601f168201915b505050505090806004018054610bc79061189a565b80601f0160208091040260200160405190810160405280929190818152602001828054610bf39061189a565b8015610c405780601f10610c1557610100808354040283529160200191610c40565b820191906000526020600020905b815481529060010190602001808311610c2357829003601f168201915b505050505090806005018054610c559061189a565b80601f0160208091040260200160405190810160405280929190818152602001828054610c819061189a565b8015610cce5780601f10610ca357610100808354040283529160200191610cce565b820191906000526020600020905b815481529060010190602001808311610cb157829003601f168201915b505050505090806006018054610ce39061189a565b80601f0160208091040260200160405190810160405280929190818152602001828054610d0f9061189a565b8015610d5c5780601f10610d3157610100808354040283529160200191610d5c565b820191906000526020600020905b815481529060010190602001808311610d3f57829003601f168201915b505050505090806007018054610d719061189a565b80601f0160208091040260200160405190810160405280929190818152602001828054610d9d9061189a565b8015610dea5780601f10610dbf57610100808354040283529160200191610dea565b820191906000526020600020905b815481529060010190602001808311610dcd57829003601f168201915b505050505090806008018054610dff9061189a565b80601f0160208091040260200160405190810160405280929190818152602001828054610e2b9061189a565b8015610e785780601f10610e4d57610100808354040283529160200191610e78565b820191906000526020600020905b815481529060010190602001808311610e5b57829003601f168201915b50505050509080600901549080600a0160009054906101000a900473ffffffffffffffffffffffffffffffffffffffff1690508b565b60008851118015610ec0575060008751115b610ec957600080fd5b60036000815480929190610edc9061198d565b91905055506040518061016001604052806003548152602001898152602001888152602001878152602001868152602001858152602001848152602001828152602001838152602001600081526020013373ffffffffffffffffffffffffffffffffffffffff16815250600260006003548152602001908152602001600020600082015181600001556020820151816001019080519060200190610f819291906110fc565b506040820151816002019080519060200190610f9e9291906110fc565b506060820151816003019080519060200190610fbb9291906110fc565b506080820151816004019080519060200190610fd89291906110fc565b5060a0820151816005019080519060200190610ff59291906110fc565b5060c08201518160060190805190602001906110129291906110fc565b5060e082015181600701908051906020019061102f9291906110fc565b5061010082015181600801908051906020019061104d9291906110fc565b50610120820151816009015561014082015181600a0160006101000a81548173ffffffffffffffffffffffffffffffffffffffff021916908373ffffffffffffffffffffffffffffffffffffffff1602179055509050507f2a5f86aec08cab0d2414db77fc9071cb68b769b2829b66f477b37db7fd79adf6600354898989898989888a6000336040516110ea9b9a99989796959493929190611cb6565b60405180910390a15050505050505050565b8280546111089061189a565b90600052602060002090601f01602090048101928261112a5760008555611171565b82601f1061114357805160ff1916838001178555611171565b82800160010185558215611171579182015b82811115611170578251825591602001919060010190611155565b5b50905061117e919061120f565b5090565b82805461118e9061189a565b90600052602060002090601f0160209004810192826111b057600085556111fe565b82601f106111c157805485556111fe565b828001600101855582156111fe57600052602060002091601f016020900482015b828111156111fd5782548255916001019190600101906111e2565b5b50905061120b919061120f565b5090565b5b80821115611228576000816000905550600101611210565b5090565b600081519050919050565b600082825260208201905092915050565b60005b8381101561126657808201518184015260208101905061124b565b83811115611275576000848401525b50505050565b6000601f19601f8301169050919050565b60006112978261122c565b6112a18185611237565b93506112b1818560208601611248565b6112ba8161127b565b840191505092915050565b600060208201905081810360008301526112df818461128c565b905092915050565b6000819050919050565b6112fa816112e7565b82525050565b600060208201905061131560008301846112f1565b92915050565b6000604051905090565b600080fd5b600080fd5b611338816112e7565b811461134357600080fd5b50565b6000813590506113558161132f565b92915050565b60006020828403121561137157611370611325565b5b600061137f84828501611346565b91505092915050565b600073ffffffffffffffffffffffffffffffffffffffff82169050919050565b60006113b382611388565b9050919050565b6113c3816113a8565b82525050565b600060a0820190506113de60008301886112f1565b81810360208301526113f0818761128c565b90508181036040830152611404818661128c565b905061141360608301856112f1565b61142060808301846113ba565b9695505050505050565b600060208201905061143f60008301846113ba565b92915050565b600080fd5b600080fd5b7f4e487b7100000000000000000000000000000000000000000000000000000000600052604160045260246000fd5b6114878261127b565b810181811067ffffffffffffffff821117156114a6576114a561144f565b5b80604052505050565b60006114b961131b565b90506114c5828261147e565b919050565b600067ffffffffffffffff8211156114e5576114e461144f565b5b6114ee8261127b565b9050602081019050919050565b82818337600083830152505050565b600061151d611518846114ca565b6114af565b9050828152602081018484840111156115395761153861144a565b5b6115448482856114fb565b509392505050565b600082601f83011261156157611560611445565b5b813561157184826020860161150a565b91505092915050565b6000806040838503121561159157611590611325565b5b600083013567ffffffffffffffff8111156115af576115ae61132a565b5b6115bb8582860161154c565b925050602083013567ffffffffffffffff8111156115dc576115db61132a565b5b6115e88582860161154c565b9150509250929050565b600061016082019050611608600083018e6112f1565b818103602083015261161a818d61128c565b9050818103604083015261162e818c61128c565b90508181036060830152611642818b61128c565b90508181036080830152611656818a61128c565b905081810360a083015261166a818961128c565b905081810360c083015261167e818861128c565b905081810360e0830152611692818761128c565b90508181036101008301526116a7818661128c565b90506116b76101208301856112f1565b6116c56101408301846113ba565b9c9b505050505050505050505050565b600080600080600080600080610100898b0312156116f6576116f5611325565b5b600089013567ffffffffffffffff8111156117145761171361132a565b5b6117208b828c0161154c565b985050602089013567ffffffffffffffff8111156117415761174061132a565b5b61174d8b828c0161154c565b975050604089013567ffffffffffffffff81111561176e5761176d61132a565b5b61177a8b828c0161154c565b965050606089013567ffffffffffffffff81111561179b5761179a61132a565b5b6117a78b828c0161154c565b955050608089013567ffffffffffffffff8111156117c8576117c761132a565b5b6117d48b828c0161154c565b94505060a089013567ffffffffffffffff8111156117f5576117f461132a565b5b6118018b828c0161154c565b93505060c089013567ffffffffffffffff8111156118225761182161132a565b5b61182e8b828c0161154c565b92505060e089013567ffffffffffffffff81111561184f5761184e61132a565b5b61185b8b828c0161154c565b9150509295985092959890939650565b7f4e487b7100000000000000000000000000000000000000000000000000000000600052602260045260246000fd5b600060028204905060018216806118b257607f821691505b602082108114156118c6576118c561186b565b5b50919050565b7f4f6e6c79206f776e65722063616e2063616c6c20746869732066756e6374696f60008201527f6e2e000000000000000000000000000000000000000000000000000000000000602082015250565b6000611928602283611237565b9150611933826118cc565b604082019050919050565b600060208201905081810360008301526119578161191b565b9050919050565b7f4e487b7100000000000000000000000000000000000000000000000000000000600052601160045260246000fd5b6000611998826112e7565b91507fffffffffffffffffffffffffffffffffffffffffffffffffffffffffffffffff8214156119cb576119ca61195e565b5b600182019050919050565b6000819050919050565b6000819050919050565b6000611a05611a006119fb846119d6565b6119e0565b6112e7565b9050919050565b611a15816119ea565b82525050565b600060a082019050611a3060008301886112f1565b8181036020830152611a42818761128c565b90508181036040830152611a56818661128c565b9050611a656060830185611a0c565b611a7260808301846113ba565b9695505050505050565b6000611a87826112e7565b9150611a92836112e7565b9250827fffffffffffffffffffffffffffffffffffffffffffffffffffffffffffffffff03821115611ac757611ac661195e565b5b828201905092915050565b7f496e73756666696369656e742066756e64730000000000000000000000000000600082015250565b6000611b08601283611237565b9150611b1382611ad2565b602082019050919050565b60006020820190508181036000830152611b3781611afb565b9050919050565b60008190508160005260206000209050919050565b60008154611b608161189a565b611b6a8186611237565b94506001821660008114611b855760018114611b9757611bca565b60ff1983168652602086019350611bca565b611ba085611b3e565b60005b83811015611bc257815481890152600182019150602081019050611ba3565b808801955050505b50505092915050565b600061016082019050611be9600083018e6112f1565b8181036020830152611bfb818d611b53565b90508181036040830152611c0f818c611b53565b90508181036060830152611c23818b611b53565b90508181036080830152611c37818a611b53565b905081810360a0830152611c4b8189611b53565b905081810360c0830152611c5f8188611b53565b905081810360e0830152611c738187611b53565b9050818103610100830152611c888186611b53565b9050611c986101208301856112f1565b611ca66101408301846113ba565b9c9b505050505050505050505050565b600061016082019050611ccc600083018e6112f1565b8181036020830152611cde818d61128c565b90508181036040830152611cf2818c61128c565b90508181036060830152611d06818b61128c565b90508181036080830152611d1a818a61128c565b905081810360a0830152611d2e818961128c565b905081810360c0830152611d42818861128c565b905081810360e0830152611d56818761128c565b9050818103610100830152611d6b818661128c565b9050611d7b610120830185611a0c565b611d896101408301846113ba565b9c9b50505050505050505050505056fea2646970667358221220c1c2e3692e63a7a2e19f944c2ce5d874a3f3f66d96297e8efc7efda38b7c30e764736f6c63430008090033",
  "linkReferences": {},
  "deployedLinkReferences": {}
}