{
  "_format": "hh-sol-artifact-1",
  "contractName": "Decentragram",
  "sourceName": "contracts/Decentragram.sol",
  "abi": [
    {
      "inputs": [],
      "stateMutability": "nonpayable",
      "type": "constructor"
    },
    {
      "anonymous": false,
      "inputs": [
        {
          "indexed": false,
          "internalType": "uint256",
          "name": "id",
          "type": "uint256"
        },
        {
          "indexed": false,
          "internalType": "string",
          "name": "hash",
          "type": "string"
        },
        {
          "indexed": false,
          "internalType": "string",
          "name": "landId",
          "type": "string"
        },
        {
          "indexed": false,
          "internalType": "uint256",
          "name": "grantAmount",
          "type": "uint256"
        },
        {
          "indexed": false,
          "internalType": "address payable",
          "name": "user",
          "type": "address"
        }
      ],
      "name": "ImageUploaded",
      "type": "event"
    },
    {
      "anonymous": false,
      "inputs": [
        {
          "indexed": false,
          "internalType": "uint256",
          "name": "id",
          "type": "uint256"
        },
        {
          "indexed": false,
          "internalType": "string",
          "name": "hash",
          "type": "string"
        },
        {
          "indexed": false,
          "internalType": "string",
          "name": "title",
          "type": "string"
        },
        {
          "indexed": false,
          "internalType": "string",
          "name": "landType",
          "type": "string"
        },
        {
          "indexed": false,
          "internalType": "string",
          "name": "country",
          "type": "string"
        },
        {
          "indexed": false,
          "internalType": "string",
          "name": "soilType",
          "type": "string"
        },
        {
          "indexed": false,
          "internalType": "string",
          "name": "landDetails",
          "type": "string"
        },
        {
          "indexed": false,
          "internalType": "string",
          "name": "price",
          "type": "string"
        },
        {
          "indexed": false,
          "internalType": "string",
          "name": "message",
          "type": "string"
        },
        {
          "indexed": false,
          "internalType": "uint256",
          "name": "grantAmount",
          "type": "uint256"
        },
        {
          "indexed": false,
          "internalType": "address payable",
          "name": "user",
          "type": "address"
        }
      ],
      "name": "LandBooked",
      "type": "event"
    },
    {
      "anonymous": false,
      "inputs": [
        {
          "indexed": false,
          "internalType": "uint256",
          "name": "id",
          "type": "uint256"
        },
        {
          "indexed": false,
          "internalType": "string",
          "name": "hash",
          "type": "string"
        },
        {
          "indexed": false,
          "internalType": "string",
          "name": "title",
          "type": "string"
        },
        {
          "indexed": false,
          "internalType": "string",
          "name": "landType",
          "type": "string"
        },
        {
          "indexed": false,
          "internalType": "string",
          "name": "country",
          "type": "string"
        },
        {
          "indexed": false,
          "internalType": "string",
          "name": "soilType",
          "type": "string"
        },
        {
          "indexed": false,
          "internalType": "string",
          "name": "landDetails",
          "type": "string"
        },
        {
          "indexed": false,
          "internalType": "string",
          "name": "price",
          "type": "string"
        },
        {
          "indexed": false,
          "internalType": "string",
          "name": "message",
          "type": "string"
        },
        {
          "indexed": false,
          "internalType": "uint256",
          "name": "grantAmount",
          "type": "uint256"
        },
        {
          "indexed": false,
          "internalType": "address payable",
          "name": "user",
          "type": "address"
        }
      ],
      "name": "LandUploaded",
      "type": "event"
    },
    {
      "inputs": [
        {
          "internalType": "uint256",
          "name": "_id",
          "type": "uint256"
        }
      ],
      "name": "bookLand",
      "outputs": [],
      "stateMutability": "payable",
      "type": "function"
    },
    {
      "inputs": [
        {
          "internalType": "uint256",
          "name": "",
          "type": "uint256"
        }
      ],
      "name": "images",
      "outputs": [
        {
          "internalType": "uint256",
          "name": "id",
          "type": "uint256"
        },
        {
          "internalType": "string",
          "name": "hash",
          "type": "string"
        },
        {
          "internalType": "string",
          "name": "landId",
          "type": "string"
        },
        {
          "internalType": "uint256",
          "name": "grantAmount",
          "type": "uint256"
        },
        {
          "internalType": "address payable",
          "name": "user",
          "type": "address"
        }
      ],
      "stateMutability": "view",
      "type": "function"
    },
    {
      "inputs": [],
      "name": "imagesCount",
      "outputs": [
        {
          "internalType": "uint256",
          "name": "",
          "type": "uint256"
        }
      ],
      "stateMutability": "view",
      "type": "function"
    },
    {
      "inputs": [
        {
          "internalType": "uint256",
          "name": "",
          "type": "uint256"
        }
      ],
      "name": "lands",
      "outputs": [
        {
          "internalType": "uint256",
          "name": "id",
          "type": "uint256"
        },
        {
          "internalType": "string",
          "name": "hash",
          "type": "string"
        },
        {
          "internalType": "string",
          "name": "title",
          "type": "string"
        },
        {
          "internalType": "string",
          "name": "landType",
          "type": "string"
        },
        {
          "internalType": "string",
          "name": "country",
          "type": "string"
        },
        {
          "internalType": "string",
          "name": "soilType",
          "type": "string"
        },
        {
          "internalType": "string",
          "name": "landDetails",
          "type": "string"
        },
        {
          "internalType": "string",
          "name": "price",
          "type": "string"
        },
        {
          "internalType": "string",
          "name": "message",
          "type": "string"
        },
        {
          "internalType": "uint256",
          "name": "grantAmount",
          "type": "uint256"
        },
        {
          "internalType": "address payable",
          "name": "user",
          "type": "address"
        }
      ],
      "stateMutability": "view",
      "type": "function"
    },
    {
      "inputs": [],
      "name": "landsCount",
      "outputs": [
        {
          "internalType": "uint256",
          "name": "",
          "type": "uint256"
        }
      ],
      "stateMutability": "view",
      "type": "function"
    },
    {
      "inputs": [],
      "name": "name",
      "outputs": [
        {
          "internalType": "string",
          "name": "",
          "type": "string"
        }
      ],
      "stateMutability": "view",
      "type": "function"
    },
    {
      "inputs": [
        {
          "internalType": "string",
          "name": "_hash",
          "type": "string"
        },
        {
          "internalType": "string",
          "name": "_landId",
          "type": "string"
        }
      ],
      "name": "uploadImage",
      "outputs": [],
      "stateMutability": "nonpayable",
      "type": "function"
    },
    {
      "inputs": [
        {
          "internalType": "string",
          "name": "_hash",
          "type": "string"
        },
        {
          "internalType": "string",
          "name": "_title",
          "type": "string"
        },
        {
          "internalType": "string",
          "name": "_landType",
          "type": "string"
        },
        {
          "internalType": "string",
          "name": "_country",
          "type": "string"
        },
        {
          "internalType": "string",
          "name": "_soilType",
          "type": "string"
        },
        {
          "internalType": "string",
          "name": "_landDetails",
          "type": "string"
        },
        {
          "internalType": "string",
          "name": "_message",
          "type": "string"
        },
        {
          "internalType": "string",
          "name": "_price",
          "type": "string"
        }
      ],
      "name": "uploadLand",
      "outputs": [],
      "stateMutability": "nonpayable",
      "type": "function"
    }
  ],
  "bytecode": "0x60806040526040518060400160405280600c81526020017f446563656e7472616772616d0000000000000000000000000000000000000000815250600090816200004a9190620002e3565b50600060025560006004553480156200006257600080fd5b50620003ca565b600081519050919050565b7f4e487b7100000000000000000000000000000000000000000000000000000000600052604160045260246000fd5b7f4e487b7100000000000000000000000000000000000000000000000000000000600052602260045260246000fd5b60006002820490506001821680620000eb57607f821691505b602082108103620001015762000100620000a3565b5b50919050565b60008190508160005260206000209050919050565b60006020601f8301049050919050565b600082821b905092915050565b6000600883026200016b7fffffffffffffffffffffffffffffffffffffffffffffffffffffffffffffffff826200012c565b6200017786836200012c565b95508019841693508086168417925050509392505050565b6000819050919050565b6000819050919050565b6000620001c4620001be620001b8846200018f565b62000199565b6200018f565b9050919050565b6000819050919050565b620001e083620001a3565b620001f8620001ef82620001cb565b84845462000139565b825550505050565b600090565b6200020f62000200565b6200021c818484620001d5565b505050565b5b8181101562000244576200023860008262000205565b60018101905062000222565b5050565b601f82111562000293576200025d8162000107565b62000268846200011c565b8101602085101562000278578190505b6200029062000287856200011c565b83018262000221565b50505b505050565b600082821c905092915050565b6000620002b86000198460080262000298565b1980831691505092915050565b6000620002d38383620002a5565b9150826002028217905092915050565b620002ee8262000069565b67ffffffffffffffff8111156200030a576200030962000074565b5b620003168254620000d2565b6200032382828562000248565b600060209050601f8311600181146200035b576000841562000346578287015190505b620003528582620002c5565b865550620003c2565b601f1984166200036b8662000107565b60005b8281101562000395578489015182556001820191506020850194506020810190506200036e565b86831015620003b55784890151620003b1601f891682620002a5565b8355505b6001600288020188555050505b505050505050565b611c6280620003da6000396000f3fe60806040526004361061007b5760003560e01c8063a91b83141161004e578063a91b831414610142578063d6b0af201461016b578063e261f1e514610187578063ec63e892146101ce5761007b565b806306fdde03146100805780631c9afd0f146100ab57806356e224af146100d65780638485648214610101575b600080fd5b34801561008c57600080fd5b506100956101f7565b6040516100a29190610f34565b60405180910390f35b3480156100b757600080fd5b506100c0610285565b6040516100cd9190610f6f565b60405180910390f35b3480156100e257600080fd5b506100eb61028b565b6040516100f89190610f6f565b60405180910390f35b34801561010d57600080fd5b5061012860048036038101906101239190610fca565b610291565b604051610139959493929190611038565b60405180910390f35b34801561014e57600080fd5b50610169600480360381019061016491906111ce565b6103f7565b005b61018560048036038101906101809190610fca565b61054f565b005b34801561019357600080fd5b506101ae60048036038101906101a99190610fca565b6107d4565b6040516101c59b9a99989796959493929190611246565b60405180910390f35b3480156101da57600080fd5b506101f560048036038101906101f09190611329565b610c8e565b005b60008054610204906114ee565b80601f0160208091040260200160405190810160405280929190818152602001828054610230906114ee565b801561027d5780601f106102525761010080835404028352916020019161027d565b820191906000526020600020905b81548152906001019060200180831161026057829003601f168201915b505050505081565b60025481565b60045481565b60036020528060005260406000206000915090508060000154908060010180546102ba906114ee565b80601f01602080910402602001604051908101604052809291908181526020018280546102e6906114ee565b80156103335780601f1061030857610100808354040283529160200191610333565b820191906000526020600020905b81548152906001019060200180831161031657829003601f168201915b505050505090806002018054610348906114ee565b80601f0160208091040260200160405190810160405280929190818152602001828054610374906114ee565b80156103c15780601f10610396576101008083540402835291602001916103c1565b820191906000526020600020905b8154815290600101906020018083116103a457829003601f168201915b5050505050908060030154908060040160009054906101000a900473ffffffffffffffffffffffffffffffffffffffff16905085565b60008251118015610409575060008151115b61041257600080fd5b600460008154809291906104259061154e565b91905055506040518060a001604052806004548152602001838152602001828152602001600081526020013373ffffffffffffffffffffffffffffffffffffffff1681525060036000600454815260200190815260200160002060008201518160000155602082015181600101908161049e9190611742565b5060408201518160020190816104b49190611742565b506060820151816003015560808201518160040160006101000a81548173ffffffffffffffffffffffffffffffffffffffff021916908373ffffffffffffffffffffffffffffffffffffffff1602179055509050507f1a409fdd5763d6f632cc0ec92624ec448fae2c874dc340879889ed07b57f9bde600454838360003360405161054395949392919061184f565b60405180910390a15050565b60008111801561056157506002548111155b61056a57600080fd5b600060016000838152602001908152602001600020905080600a0160009054906101000a900473ffffffffffffffffffffffffffffffffffffffff1673ffffffffffffffffffffffffffffffffffffffff166108fc349081150290604051600060405180830381858888f193505050501580156105eb573d6000803e3d6000fd5b503481600901600082825461060091906118b0565b925050819055508060016000848152602001908152602001600020600082015481600001556001820181600101908161063991906118fa565b506002820181600201908161064e91906118fa565b506003820181600301908161066391906118fa565b506004820181600401908161067891906118fa565b506005820181600501908161068d91906118fa565b50600682018160060190816106a291906118fa565b50600782018160070190816106b791906118fa565b50600882018160080190816106cc91906118fa565b5060098201548160090155600a820160009054906101000a900473ffffffffffffffffffffffffffffffffffffffff1681600a0160006101000a81548173ffffffffffffffffffffffffffffffffffffffff021916908373ffffffffffffffffffffffffffffffffffffffff1602179055509050507fb4107a90fb4923052fff822489af731d0cb1976add7ec4430a3ce258159e97b0816000015482600101836002018460030185600401866005018760060188600701896008018a600901548b600a0160009054906101000a900473ffffffffffffffffffffffffffffffffffffffff166040516107c89b9a99989796959493929190611a66565b60405180910390a15050565b60016020528060005260406000206000915090508060000154908060010180546107fd906114ee565b80601f0160208091040260200160405190810160405280929190818152602001828054610829906114ee565b80156108765780601f1061084b57610100808354040283529160200191610876565b820191906000526020600020905b81548152906001019060200180831161085957829003601f168201915b50505050509080600201805461088b906114ee565b80601f01602080910402602001604051908101604052809291908181526020018280546108b7906114ee565b80156109045780601f106108d957610100808354040283529160200191610904565b820191906000526020600020905b8154815290600101906020018083116108e757829003601f168201915b505050505090806003018054610919906114ee565b80601f0160208091040260200160405190810160405280929190818152602001828054610945906114ee565b80156109925780601f1061096757610100808354040283529160200191610992565b820191906000526020600020905b81548152906001019060200180831161097557829003601f168201915b5050505050908060040180546109a7906114ee565b80601f01602080910402602001604051908101604052809291908181526020018280546109d3906114ee565b8015610a205780601f106109f557610100808354040283529160200191610a20565b820191906000526020600020905b815481529060010190602001808311610a0357829003601f168201915b505050505090806005018054610a35906114ee565b80601f0160208091040260200160405190810160405280929190818152602001828054610a61906114ee565b8015610aae5780601f10610a8357610100808354040283529160200191610aae565b820191906000526020600020905b815481529060010190602001808311610a9157829003601f168201915b505050505090806006018054610ac3906114ee565b80601f0160208091040260200160405190810160405280929190818152602001828054610aef906114ee565b8015610b3c5780601f10610b1157610100808354040283529160200191610b3c565b820191906000526020600020905b815481529060010190602001808311610b1f57829003601f168201915b505050505090806007018054610b51906114ee565b80601f0160208091040260200160405190810160405280929190818152602001828054610b7d906114ee565b8015610bca5780601f10610b9f57610100808354040283529160200191610bca565b820191906000526020600020905b815481529060010190602001808311610bad57829003601f168201915b505050505090806008018054610bdf906114ee565b80601f0160208091040260200160405190810160405280929190818152602001828054610c0b906114ee565b8015610c585780601f10610c2d57610100808354040283529160200191610c58565b820191906000526020600020905b815481529060010190602001808311610c3b57829003601f168201915b50505050509080600901549080600a0160009054906101000a900473ffffffffffffffffffffffffffffffffffffffff1690508b565b60008851118015610ca0575060008751115b610ca957600080fd5b60026000815480929190610cbc9061154e565b91905055506040518061016001604052806002548152602001898152602001888152602001878152602001868152602001858152602001848152602001828152602001838152602001600081526020013373ffffffffffffffffffffffffffffffffffffffff16815250600160006002548152602001908152602001600020600082015181600001556020820151816001019081610d5a9190611742565b506040820151816002019081610d709190611742565b506060820151816003019081610d869190611742565b506080820151816004019081610d9c9190611742565b5060a0820151816005019081610db29190611742565b5060c0820151816006019081610dc89190611742565b5060e0820151816007019081610dde9190611742565b50610100820151816008019081610df59190611742565b50610120820151816009015561014082015181600a0160006101000a81548173ffffffffffffffffffffffffffffffffffffffff021916908373ffffffffffffffffffffffffffffffffffffffff1602179055509050507f2a5f86aec08cab0d2414db77fc9071cb68b769b2829b66f477b37db7fd79adf6600254898989898989888a600033604051610e929b9a99989796959493929190611b49565b60405180910390a15050505050505050565b600081519050919050565b600082825260208201905092915050565b60005b83811015610ede578082015181840152602081019050610ec3565b60008484015250505050565b6000601f19601f8301169050919050565b6000610f0682610ea4565b610f108185610eaf565b9350610f20818560208601610ec0565b610f2981610eea565b840191505092915050565b60006020820190508181036000830152610f4e8184610efb565b905092915050565b6000819050919050565b610f6981610f56565b82525050565b6000602082019050610f846000830184610f60565b92915050565b6000604051905090565b600080fd5b600080fd5b610fa781610f56565b8114610fb257600080fd5b50565b600081359050610fc481610f9e565b92915050565b600060208284031215610fe057610fdf610f94565b5b6000610fee84828501610fb5565b91505092915050565b600073ffffffffffffffffffffffffffffffffffffffff82169050919050565b600061102282610ff7565b9050919050565b61103281611017565b82525050565b600060a08201905061104d6000830188610f60565b818103602083015261105f8187610efb565b905081810360408301526110738186610efb565b90506110826060830185610f60565b61108f6080830184611029565b9695505050505050565b600080fd5b600080fd5b7f4e487b7100000000000000000000000000000000000000000000000000000000600052604160045260246000fd5b6110db82610eea565b810181811067ffffffffffffffff821117156110fa576110f96110a3565b5b80604052505050565b600061110d610f8a565b905061111982826110d2565b919050565b600067ffffffffffffffff821115611139576111386110a3565b5b61114282610eea565b9050602081019050919050565b82818337600083830152505050565b600061117161116c8461111e565b611103565b90508281526020810184848401111561118d5761118c61109e565b5b61119884828561114f565b509392505050565b600082601f8301126111b5576111b4611099565b5b81356111c584826020860161115e565b91505092915050565b600080604083850312156111e5576111e4610f94565b5b600083013567ffffffffffffffff81111561120357611202610f99565b5b61120f858286016111a0565b925050602083013567ffffffffffffffff8111156112305761122f610f99565b5b61123c858286016111a0565b9150509250929050565b60006101608201905061125c600083018e610f60565b818103602083015261126e818d610efb565b90508181036040830152611282818c610efb565b90508181036060830152611296818b610efb565b905081810360808301526112aa818a610efb565b905081810360a08301526112be8189610efb565b905081810360c08301526112d28188610efb565b905081810360e08301526112e68187610efb565b90508181036101008301526112fb8186610efb565b905061130b610120830185610f60565b611319610140830184611029565b9c9b505050505050505050505050565b600080600080600080600080610100898b03121561134a57611349610f94565b5b600089013567ffffffffffffffff81111561136857611367610f99565b5b6113748b828c016111a0565b985050602089013567ffffffffffffffff81111561139557611394610f99565b5b6113a18b828c016111a0565b975050604089013567ffffffffffffffff8111156113c2576113c1610f99565b5b6113ce8b828c016111a0565b965050606089013567ffffffffffffffff8111156113ef576113ee610f99565b5b6113fb8b828c016111a0565b955050608089013567ffffffffffffffff81111561141c5761141b610f99565b5b6114288b828c016111a0565b94505060a089013567ffffffffffffffff81111561144957611448610f99565b5b6114558b828c016111a0565b93505060c089013567ffffffffffffffff81111561147657611475610f99565b5b6114828b828c016111a0565b92505060e089013567ffffffffffffffff8111156114a3576114a2610f99565b5b6114af8b828c016111a0565b9150509295985092959890939650565b7f4e487b7100000000000000000000000000000000000000000000000000000000600052602260045260246000fd5b6000600282049050600182168061150657607f821691505b602082108103611519576115186114bf565b5b50919050565b7f4e487b7100000000000000000000000000000000000000000000000000000000600052601160045260246000fd5b600061155982610f56565b91507fffffffffffffffffffffffffffffffffffffffffffffffffffffffffffffffff820361158b5761158a61151f565b5b600182019050919050565b60008190508160005260206000209050919050565b60006020601f8301049050919050565b600082821b905092915050565b6000600883026115f87fffffffffffffffffffffffffffffffffffffffffffffffffffffffffffffffff826115bb565b61160286836115bb565b95508019841693508086168417925050509392505050565b6000819050919050565b600061163f61163a61163584610f56565b61161a565b610f56565b9050919050565b6000819050919050565b61165983611624565b61166d61166582611646565b8484546115c8565b825550505050565b600090565b611682611675565b61168d818484611650565b505050565b5b818110156116b1576116a660008261167a565b600181019050611693565b5050565b601f8211156116f6576116c781611596565b6116d0846115ab565b810160208510156116df578190505b6116f36116eb856115ab565b830182611692565b50505b505050565b600082821c905092915050565b6000611719600019846008026116fb565b1980831691505092915050565b60006117328383611708565b9150826002028217905092915050565b61174b82610ea4565b67ffffffffffffffff811115611764576117636110a3565b5b61176e82546114ee565b6117798282856116b5565b600060209050601f8311600181146117ac576000841561179a578287015190505b6117a48582611726565b86555061180c565b601f1984166117ba86611596565b60005b828110156117e2578489015182556001820191506020850194506020810190506117bd565b868310156117ff57848901516117fb601f891682611708565b8355505b6001600288020188555050505b505050505050565b6000819050919050565b600061183961183461182f84611814565b61161a565b610f56565b9050919050565b6118498161181e565b82525050565b600060a0820190506118646000830188610f60565b81810360208301526118768187610efb565b9050818103604083015261188a8186610efb565b90506118996060830185611840565b6118a66080830184611029565b9695505050505050565b60006118bb82610f56565b91506118c683610f56565b92508282019050808211156118de576118dd61151f565b5b92915050565b6000815490506118f3816114ee565b9050919050565b8181036119085750506119e0565b611911826118e4565b67ffffffffffffffff81111561192a576119296110a3565b5b61193482546114ee565b61193f8282856116b5565b6000601f83116001811461196e576000841561195c578287015490505b6119668582611726565b8655506119d9565b601f19841661197c87611596565b965061198786611596565b60005b828110156119af5784890154825560018201915060018501945060208101905061198a565b868310156119cc57848901546119c8601f891682611708565b8355505b6001600288020188555050505b5050505050505b565b600081546119ef816114ee565b6119f98186610eaf565b94506001821660008114611a145760018114611a2a57611a5d565b60ff198316865281151560200286019350611a5d565b611a3385611596565b60005b83811015611a5557815481890152600182019150602081019050611a36565b808801955050505b50505092915050565b600061016082019050611a7c600083018e610f60565b8181036020830152611a8e818d6119e2565b90508181036040830152611aa2818c6119e2565b90508181036060830152611ab6818b6119e2565b90508181036080830152611aca818a6119e2565b905081810360a0830152611ade81896119e2565b905081810360c0830152611af281886119e2565b905081810360e0830152611b0681876119e2565b9050818103610100830152611b1b81866119e2565b9050611b2b610120830185610f60565b611b39610140830184611029565b9c9b505050505050505050505050565b600061016082019050611b5f600083018e610f60565b8181036020830152611b71818d610efb565b90508181036040830152611b85818c610efb565b90508181036060830152611b99818b610efb565b90508181036080830152611bad818a610efb565b905081810360a0830152611bc18189610efb565b905081810360c0830152611bd58188610efb565b905081810360e0830152611be98187610efb565b9050818103610100830152611bfe8186610efb565b9050611c0e610120830185611840565b611c1c610140830184611029565b9c9b50505050505050505050505056fea26469706673582212206a89391cf9fc3a07f7e2295ce9f4a92d58a014e44fb6411ce61f0b598053d9ab64736f6c63430008130033",
  "linkReferences": {},
  "deployedLinkReferences": {}
}