{
  "_format": "hh-sol-artifact-1",
  "contractName": "Decentragram",
  "sourceName": "contracts/Decentragram.sol",
  "abi": [
    {
      "inputs": [],
      "stateMutability": "nonpayable",
      "type": "constructor"
    },
    {
      "anonymous": false,
      "inputs": [
        {
          "indexed": false,
          "internalType": "uint256",
          "name": "id",
          "type": "uint256"
        },
        {
          "indexed": false,
          "internalType": "string",
          "name": "hash",
          "type": "string"
        },
        {
          "indexed": false,
          "internalType": "string",
          "name": "landId",
          "type": "string"
        },
        {
          "indexed": false,
          "internalType": "uint256",
          "name": "grantAmount",
          "type": "uint256"
        },
        {
          "indexed": false,
          "internalType": "address payable",
          "name": "user",
          "type": "address"
        }
      ],
      "name": "ImageUploaded",
      "type": "event"
    },
    {
      "anonymous": false,
      "inputs": [
        {
          "indexed": false,
          "internalType": "uint256",
          "name": "id",
          "type": "uint256"
        },
        {
          "indexed": false,
          "internalType": "string",
          "name": "hash",
          "type": "string"
        },
        {
          "indexed": false,
          "internalType": "string",
          "name": "title",
          "type": "string"
        },
        {
          "indexed": false,
          "internalType": "string",
          "name": "landType",
          "type": "string"
        },
        {
          "indexed": false,
          "internalType": "string",
          "name": "country",
          "type": "string"
        },
        {
          "indexed": false,
          "internalType": "string",
          "name": "soilType",
          "type": "string"
        },
        {
          "indexed": false,
          "internalType": "string",
          "name": "landDetails",
          "type": "string"
        },
        {
          "indexed": false,
          "internalType": "string",
          "name": "price",
          "type": "string"
        },
        {
          "indexed": false,
          "internalType": "string",
          "name": "message",
          "type": "string"
        },
        {
          "indexed": false,
          "internalType": "uint256",
          "name": "grantAmount",
          "type": "uint256"
        },
        {
          "indexed": false,
          "internalType": "address payable",
          "name": "user",
          "type": "address"
        }
      ],
      "name": "LandBooked",
      "type": "event"
    },
    {
      "anonymous": false,
      "inputs": [
        {
          "indexed": false,
          "internalType": "uint256",
          "name": "id",
          "type": "uint256"
        },
        {
          "indexed": false,
          "internalType": "string",
          "name": "hash",
          "type": "string"
        },
        {
          "indexed": false,
          "internalType": "string",
          "name": "title",
          "type": "string"
        },
        {
          "indexed": false,
          "internalType": "string",
          "name": "landType",
          "type": "string"
        },
        {
          "indexed": false,
          "internalType": "string",
          "name": "country",
          "type": "string"
        },
        {
          "indexed": false,
          "internalType": "string",
          "name": "soilType",
          "type": "string"
        },
        {
          "indexed": false,
          "internalType": "string",
          "name": "landDetails",
          "type": "string"
        },
        {
          "indexed": false,
          "internalType": "string",
          "name": "price",
          "type": "string"
        },
        {
          "indexed": false,
          "internalType": "string",
          "name": "message",
          "type": "string"
        },
        {
          "indexed": false,
          "internalType": "uint256",
          "name": "grantAmount",
          "type": "uint256"
        },
        {
          "indexed": false,
          "internalType": "address payable",
          "name": "user",
          "type": "address"
        }
      ],
      "name": "LandUploaded",
      "type": "event"
    },
    {
      "inputs": [
        {
          "internalType": "uint256",
          "name": "_id",
          "type": "uint256"
        }
      ],
      "name": "bookLand",
      "outputs": [],
      "stateMutability": "payable",
      "type": "function"
    },
    {
      "inputs": [
        {
          "internalType": "uint256",
          "name": "",
          "type": "uint256"
        }
      ],
      "name": "images",
      "outputs": [
        {
          "internalType": "uint256",
          "name": "id",
          "type": "uint256"
        },
        {
          "internalType": "string",
          "name": "hash",
          "type": "string"
        },
        {
          "internalType": "string",
          "name": "landId",
          "type": "string"
        },
        {
          "internalType": "uint256",
          "name": "grantAmount",
          "type": "uint256"
        },
        {
          "internalType": "address payable",
          "name": "user",
          "type": "address"
        }
      ],
      "stateMutability": "view",
      "type": "function"
    },
    {
      "inputs": [],
      "name": "imagesCount",
      "outputs": [
        {
          "internalType": "uint256",
          "name": "",
          "type": "uint256"
        }
      ],
      "stateMutability": "view",
      "type": "function"
    },
    {
      "inputs": [
        {
          "internalType": "uint256",
          "name": "",
          "type": "uint256"
        }
      ],
      "name": "lands",
      "outputs": [
        {
          "internalType": "uint256",
          "name": "id",
          "type": "uint256"
        },
        {
          "internalType": "string",
          "name": "hash",
          "type": "string"
        },
        {
          "internalType": "string",
          "name": "title",
          "type": "string"
        },
        {
          "internalType": "string",
          "name": "landType",
          "type": "string"
        },
        {
          "internalType": "string",
          "name": "country",
          "type": "string"
        },
        {
          "internalType": "string",
          "name": "soilType",
          "type": "string"
        },
        {
          "internalType": "string",
          "name": "landDetails",
          "type": "string"
        },
        {
          "internalType": "string",
          "name": "price",
          "type": "string"
        },
        {
          "internalType": "string",
          "name": "message",
          "type": "string"
        },
        {
          "internalType": "uint256",
          "name": "grantAmount",
          "type": "uint256"
        },
        {
          "internalType": "address payable",
          "name": "user",
          "type": "address"
        }
      ],
      "stateMutability": "view",
      "type": "function"
    },
    {
      "inputs": [],
      "name": "landsCount",
      "outputs": [
        {
          "internalType": "uint256",
          "name": "",
          "type": "uint256"
        }
      ],
      "stateMutability": "view",
      "type": "function"
    },
    {
      "inputs": [],
      "name": "name",
      "outputs": [
        {
          "internalType": "string",
          "name": "",
          "type": "string"
        }
      ],
      "stateMutability": "view",
      "type": "function"
    },
    {
      "inputs": [
        {
          "internalType": "string",
          "name": "_hash",
          "type": "string"
        },
        {
          "internalType": "string",
          "name": "_landId",
          "type": "string"
        }
      ],
      "name": "uploadImage",
      "outputs": [],
      "stateMutability": "nonpayable",
      "type": "function"
    },
    {
      "inputs": [
        {
          "internalType": "string",
          "name": "_hash",
          "type": "string"
        },
        {
          "internalType": "string",
          "name": "_title",
          "type": "string"
        },
        {
          "internalType": "string",
          "name": "_landType",
          "type": "string"
        },
        {
          "internalType": "string",
          "name": "_country",
          "type": "string"
        },
        {
          "internalType": "string",
          "name": "_soilType",
          "type": "string"
        },
        {
          "internalType": "string",
          "name": "_landDetails",
          "type": "string"
        },
        {
          "internalType": "string",
          "name": "_message",
          "type": "string"
        },
        {
          "internalType": "string",
          "name": "_price",
          "type": "string"
        }
      ],
      "name": "uploadLand",
      "outputs": [],
      "stateMutability": "nonpayable",
      "type": "function"
    }
  ],
  "bytecode": "0x60806040526040518060400160405280600c81526020017f446563656e7472616772616d0000000000000000000000000000000000000000815250600090805190602001906200005192919062000070565b50600060025560006004553480156200006957600080fd5b5062000185565b8280546200007e906200014f565b90600052602060002090601f016020900481019282620000a25760008555620000ee565b82601f10620000bd57805160ff1916838001178555620000ee565b82800160010185558215620000ee579182015b82811115620000ed578251825591602001919060010190620000d0565b5b509050620000fd919062000101565b5090565b5b808211156200011c57600081600090555060010162000102565b5090565b7f4e487b7100000000000000000000000000000000000000000000000000000000600052602260045260246000fd5b600060028204905060018216806200016857607f821691505b602082108114156200017f576200017e62000120565b5b50919050565b611afc80620001956000396000f3fe60806040526004361061007b5760003560e01c8063a91b83141161004e578063a91b831414610142578063d6b0af201461016b578063e261f1e514610187578063ec63e892146101ce5761007b565b806306fdde03146100805780631c9afd0f146100ab57806356e224af146100d65780638485648214610101575b600080fd5b34801561008c57600080fd5b506100956101f7565b6040516100a2919061110b565b60405180910390f35b3480156100b757600080fd5b506100c0610285565b6040516100cd9190611146565b60405180910390f35b3480156100e257600080fd5b506100eb61028b565b6040516100f89190611146565b60405180910390f35b34801561010d57600080fd5b50610128600480360381019061012391906111a1565b610291565b60405161013995949392919061120f565b60405180910390f35b34801561014e57600080fd5b50610169600480360381019061016491906113a5565b6103f7565b005b610185600480360381019061018091906111a1565b61055d565b005b34801561019357600080fd5b506101ae60048036038101906101a991906111a1565b61083a565b6040516101c59b9a9998979695949392919061141d565b60405180910390f35b3480156101da57600080fd5b506101f560048036038101906101f09190611500565b610cf4565b005b60008054610204906116c5565b80601f0160208091040260200160405190810160405280929190818152602001828054610230906116c5565b801561027d5780601f106102525761010080835404028352916020019161027d565b820191906000526020600020905b81548152906001019060200180831161026057829003601f168201915b505050505081565b60025481565b60045481565b60036020528060005260406000206000915090508060000154908060010180546102ba906116c5565b80601f01602080910402602001604051908101604052809291908181526020018280546102e6906116c5565b80156103335780601f1061030857610100808354040283529160200191610333565b820191906000526020600020905b81548152906001019060200180831161031657829003601f168201915b505050505090806002018054610348906116c5565b80601f0160208091040260200160405190810160405280929190818152602001828054610374906116c5565b80156103c15780601f10610396576101008083540402835291602001916103c1565b820191906000526020600020905b8154815290600101906020018083116103a457829003601f168201915b5050505050908060030154908060040160009054906101000a900473ffffffffffffffffffffffffffffffffffffffff16905085565b60008251118015610409575060008151115b61041257600080fd5b6004600081548092919061042590611726565b91905055506040518060a001604052806004548152602001838152602001828152602001600081526020013373ffffffffffffffffffffffffffffffffffffffff168152506003600060045481526020019081526020016000206000820151816000015560208201518160010190805190602001906104a5929190610f42565b5060408201518160020190805190602001906104c2929190610f42565b506060820151816003015560808201518160040160006101000a81548173ffffffffffffffffffffffffffffffffffffffff021916908373ffffffffffffffffffffffffffffffffffffffff1602179055509050507f1a409fdd5763d6f632cc0ec92624ec448fae2c874dc340879889ed07b57f9bde60045483836000336040516105519594939291906117b4565b60405180910390a15050565b60008111801561056f57506002548111155b61057857600080fd5b600060016000838152602001908152602001600020905080600a0160009054906101000a900473ffffffffffffffffffffffffffffffffffffffff1673ffffffffffffffffffffffffffffffffffffffff166108fc349081150290604051600060405180830381858888f193505050501580156105f9573d6000803e3d6000fd5b503481600901600082825461060e9190611815565b925050819055508060016000848152602001908152602001600020600082015481600001556001820181600101908054610647906116c5565b610652929190610fc8565b506002820181600201908054610667906116c5565b610672929190610fc8565b506003820181600301908054610687906116c5565b610692929190610fc8565b5060048201816004019080546106a7906116c5565b6106b2929190610fc8565b5060058201816005019080546106c7906116c5565b6106d2929190610fc8565b5060068201816006019080546106e7906116c5565b6106f2929190610fc8565b506007820181600701908054610707906116c5565b610712929190610fc8565b506008820181600801908054610727906116c5565b610732929190610fc8565b5060098201548160090155600a820160009054906101000a900473ffffffffffffffffffffffffffffffffffffffff1681600a0160006101000a81548173ffffffffffffffffffffffffffffffffffffffff021916908373ffffffffffffffffffffffffffffffffffffffff1602179055509050507fb4107a90fb4923052fff822489af731d0cb1976add7ec4430a3ce258159e97b0816000015482600101836002018460030185600401866005018760060188600701896008018a600901548b600a0160009054906101000a900473ffffffffffffffffffffffffffffffffffffffff1660405161082e9b9a99989796959493929190611900565b60405180910390a15050565b6001602052806000526040600020600091509050806000015490806001018054610863906116c5565b80601f016020809104026020016040519081016040528092919081815260200182805461088f906116c5565b80156108dc5780601f106108b1576101008083540402835291602001916108dc565b820191906000526020600020905b8154815290600101906020018083116108bf57829003601f168201915b5050505050908060020180546108f1906116c5565b80601f016020809104026020016040519081016040528092919081815260200182805461091d906116c5565b801561096a5780601f1061093f5761010080835404028352916020019161096a565b820191906000526020600020905b81548152906001019060200180831161094d57829003601f168201915b50505050509080600301805461097f906116c5565b80601f01602080910402602001604051908101604052809291908181526020018280546109ab906116c5565b80156109f85780601f106109cd576101008083540402835291602001916109f8565b820191906000526020600020905b8154815290600101906020018083116109db57829003601f168201915b505050505090806004018054610a0d906116c5565b80601f0160208091040260200160405190810160405280929190818152602001828054610a39906116c5565b8015610a865780601f10610a5b57610100808354040283529160200191610a86565b820191906000526020600020905b815481529060010190602001808311610a6957829003601f168201915b505050505090806005018054610a9b906116c5565b80601f0160208091040260200160405190810160405280929190818152602001828054610ac7906116c5565b8015610b145780601f10610ae957610100808354040283529160200191610b14565b820191906000526020600020905b815481529060010190602001808311610af757829003601f168201915b505050505090806006018054610b29906116c5565b80601f0160208091040260200160405190810160405280929190818152602001828054610b55906116c5565b8015610ba25780601f10610b7757610100808354040283529160200191610ba2565b820191906000526020600020905b815481529060010190602001808311610b8557829003601f168201915b505050505090806007018054610bb7906116c5565b80601f0160208091040260200160405190810160405280929190818152602001828054610be3906116c5565b8015610c305780601f10610c0557610100808354040283529160200191610c30565b820191906000526020600020905b815481529060010190602001808311610c1357829003601f168201915b505050505090806008018054610c45906116c5565b80601f0160208091040260200160405190810160405280929190818152602001828054610c71906116c5565b8015610cbe5780601f10610c9357610100808354040283529160200191610cbe565b820191906000526020600020905b815481529060010190602001808311610ca157829003601f168201915b50505050509080600901549080600a0160009054906101000a900473ffffffffffffffffffffffffffffffffffffffff1690508b565b60008851118015610d06575060008751115b610d0f57600080fd5b60026000815480929190610d2290611726565b91905055506040518061016001604052806002548152602001898152602001888152602001878152602001868152602001858152602001848152602001828152602001838152602001600081526020013373ffffffffffffffffffffffffffffffffffffffff16815250600160006002548152602001908152602001600020600082015181600001556020820151816001019080519060200190610dc7929190610f42565b506040820151816002019080519060200190610de4929190610f42565b506060820151816003019080519060200190610e01929190610f42565b506080820151816004019080519060200190610e1e929190610f42565b5060a0820151816005019080519060200190610e3b929190610f42565b5060c0820151816006019080519060200190610e58929190610f42565b5060e0820151816007019080519060200190610e75929190610f42565b50610100820151816008019080519060200190610e93929190610f42565b50610120820151816009015561014082015181600a0160006101000a81548173ffffffffffffffffffffffffffffffffffffffff021916908373ffffffffffffffffffffffffffffffffffffffff1602179055509050507f2a5f86aec08cab0d2414db77fc9071cb68b769b2829b66f477b37db7fd79adf6600254898989898989888a600033604051610f309b9a999897969594939291906119e3565b60405180910390a15050505050505050565b828054610f4e906116c5565b90600052602060002090601f016020900481019282610f705760008555610fb7565b82601f10610f8957805160ff1916838001178555610fb7565b82800160010185558215610fb7579182015b82811115610fb6578251825591602001919060010190610f9b565b5b509050610fc49190611055565b5090565b828054610fd4906116c5565b90600052602060002090601f016020900481019282610ff65760008555611044565b82601f106110075780548555611044565b8280016001018555821561104457600052602060002091601f016020900482015b82811115611043578254825591600101919060010190611028565b5b5090506110519190611055565b5090565b5b8082111561106e576000816000905550600101611056565b5090565b600081519050919050565b600082825260208201905092915050565b60005b838110156110ac578082015181840152602081019050611091565b838111156110bb576000848401525b50505050565b6000601f19601f8301169050919050565b60006110dd82611072565b6110e7818561107d565b93506110f781856020860161108e565b611100816110c1565b840191505092915050565b6000602082019050818103600083015261112581846110d2565b905092915050565b6000819050919050565b6111408161112d565b82525050565b600060208201905061115b6000830184611137565b92915050565b6000604051905090565b600080fd5b600080fd5b61117e8161112d565b811461118957600080fd5b50565b60008135905061119b81611175565b92915050565b6000602082840312156111b7576111b661116b565b5b60006111c58482850161118c565b91505092915050565b600073ffffffffffffffffffffffffffffffffffffffff82169050919050565b60006111f9826111ce565b9050919050565b611209816111ee565b82525050565b600060a0820190506112246000830188611137565b818103602083015261123681876110d2565b9050818103604083015261124a81866110d2565b90506112596060830185611137565b6112666080830184611200565b9695505050505050565b600080fd5b600080fd5b7f4e487b7100000000000000000000000000000000000000000000000000000000600052604160045260246000fd5b6112b2826110c1565b810181811067ffffffffffffffff821117156112d1576112d061127a565b5b80604052505050565b60006112e4611161565b90506112f082826112a9565b919050565b600067ffffffffffffffff8211156113105761130f61127a565b5b611319826110c1565b9050602081019050919050565b82818337600083830152505050565b6000611348611343846112f5565b6112da565b90508281526020810184848401111561136457611363611275565b5b61136f848285611326565b509392505050565b600082601f83011261138c5761138b611270565b5b813561139c848260208601611335565b91505092915050565b600080604083850312156113bc576113bb61116b565b5b600083013567ffffffffffffffff8111156113da576113d9611170565b5b6113e685828601611377565b925050602083013567ffffffffffffffff81111561140757611406611170565b5b61141385828601611377565b9150509250929050565b600061016082019050611433600083018e611137565b8181036020830152611445818d6110d2565b90508181036040830152611459818c6110d2565b9050818103606083015261146d818b6110d2565b90508181036080830152611481818a6110d2565b905081810360a083015261149581896110d2565b905081810360c08301526114a981886110d2565b905081810360e08301526114bd81876110d2565b90508181036101008301526114d281866110d2565b90506114e2610120830185611137565b6114f0610140830184611200565b9c9b505050505050505050505050565b600080600080600080600080610100898b0312156115215761152061116b565b5b600089013567ffffffffffffffff81111561153f5761153e611170565b5b61154b8b828c01611377565b985050602089013567ffffffffffffffff81111561156c5761156b611170565b5b6115788b828c01611377565b975050604089013567ffffffffffffffff81111561159957611598611170565b5b6115a58b828c01611377565b965050606089013567ffffffffffffffff8111156115c6576115c5611170565b5b6115d28b828c01611377565b955050608089013567ffffffffffffffff8111156115f3576115f2611170565b5b6115ff8b828c01611377565b94505060a089013567ffffffffffffffff8111156116205761161f611170565b5b61162c8b828c01611377565b93505060c089013567ffffffffffffffff81111561164d5761164c611170565b5b6116598b828c01611377565b92505060e089013567ffffffffffffffff81111561167a57611679611170565b5b6116868b828c01611377565b9150509295985092959890939650565b7f4e487b7100000000000000000000000000000000000000000000000000000000600052602260045260246000fd5b600060028204905060018216806116dd57607f821691505b602082108114156116f1576116f0611696565b5b50919050565b7f4e487b7100000000000000000000000000000000000000000000000000000000600052601160045260246000fd5b60006117318261112d565b91507fffffffffffffffffffffffffffffffffffffffffffffffffffffffffffffffff821415611764576117636116f7565b5b600182019050919050565b6000819050919050565b6000819050919050565b600061179e6117996117948461176f565b611779565b61112d565b9050919050565b6117ae81611783565b82525050565b600060a0820190506117c96000830188611137565b81810360208301526117db81876110d2565b905081810360408301526117ef81866110d2565b90506117fe60608301856117a5565b61180b6080830184611200565b9695505050505050565b60006118208261112d565b915061182b8361112d565b9250827fffffffffffffffffffffffffffffffffffffffffffffffffffffffffffffffff038211156118605761185f6116f7565b5b828201905092915050565b60008190508160005260206000209050919050565b6000815461188d816116c5565b611897818661107d565b945060018216600081146118b257600181146118c4576118f7565b60ff19831686526020860193506118f7565b6118cd8561186b565b60005b838110156118ef578154818901526001820191506020810190506118d0565b808801955050505b50505092915050565b600061016082019050611916600083018e611137565b8181036020830152611928818d611880565b9050818103604083015261193c818c611880565b90508181036060830152611950818b611880565b90508181036080830152611964818a611880565b905081810360a08301526119788189611880565b905081810360c083015261198c8188611880565b905081810360e08301526119a08187611880565b90508181036101008301526119b58186611880565b90506119c5610120830185611137565b6119d3610140830184611200565b9c9b505050505050505050505050565b6000610160820190506119f9600083018e611137565b8181036020830152611a0b818d6110d2565b90508181036040830152611a1f818c6110d2565b90508181036060830152611a33818b6110d2565b90508181036080830152611a47818a6110d2565b905081810360a0830152611a5b81896110d2565b905081810360c0830152611a6f81886110d2565b905081810360e0830152611a8381876110d2565b9050818103610100830152611a9881866110d2565b9050611aa86101208301856117a5565b611ab6610140830184611200565b9c9b50505050505050505050505056fea26469706673582212203ba8c606e1fd6e44635be51069c617423d37ae0c7a9ab2544ee13f8596e074c964736f6c63430008090033",
  "linkReferences": {},
  "deployedLinkReferences": {}
}